:101089000A31202D20567962657220726F7A736158
:101099006820444120707265766F646E696B612CBB
:1010A9002032202D204E6173746176207072756430
:1010B9002076206D410A000A567962657220726FA6
:1010C9007A73616820444120707265766F646E6935
:1010D9006B613A0A31202D2035303075412C203290
:1010E900202D20316D412C2033202D20326D410AD5
:1010F900000A5A6164616A20686F646E6F747520B2
:1011090076206D410A002566000A5A6164616E61A4
:1011190020686F646E6F7461206A65206D696D69FE
:1011290020726F7A73616875210A20004E617374A9
:101139006176656E6120686F646E6F7461206A659F
:0B11490020252E303166206D410A0089
:100DE3001211A4D2997BFF7A107989120687121106
:100DF300B68F0AE50A24CE7003020ED00470E67B98
:100E0300FF7A1079C01206871211B68F0AE5B9541A
:100E130003F50BAF97EFAD96F510EDF511E50AB4B9
:100E2300310EAC10E412010E7BF87A0779008013BF
:100E3300E50AB43212AC10AD11E412010E7BF87A5C
:100E430007798078398015E50AB4331BAC10AD11EE
:100E5300E412010E7BF87A077900783A1200038FC7
:100E63000F8E0E8D0D8C0CE50A6431701353B97F10
:100E730053B9FD43B90143B980FFFEFD7C46803180
:100E8300E50A6432701453B97F53B9FE43B9024380
:100E9300B980FFFE7D807C458017E50A64336003DB
:100EA300020DE853B97F43B90343B980FFFEFD7CCC
:100EB30045AB0FAA0EA90DA80C1200031201478E11
:100EC300108F11EFF596E510F597020DE8E4F50A9A
:100ED3007BFF7A1079FA120687752500752600754F
:100EE300270C7BFF7A11790F120B16E5B95403F522
:100EF3000A24FE600F14601524027029E4FFFEFD2E
:100F03007C46800FE4FFFE7D807C458006E4FFFE87
:100F1300FD7C45AB0FAA0EA90DA80C12000312010C
:100F2300478E108F11D3E51194FFE510940F400CF9
:100F33007BFF7A117912120687020DE8E5B9540393
:100F4300F50B6401700FAC10AD1112010E7BF87A32
:100F53000779008013E50B64027011AC10AD111218
:100F6300010E7BF87A07798078398015E50B6403E5
:100F73007023AC10AD1112010E7BF87A077900785B
:100F83003A1200038F288E278D268C257BFF7A113A
:100F93007935120687E511F596E510F597020DE808
:0711EA0053D9BFE4F5D9223F
:0D11C700758840758920758E08758D9622FB
:0411F60075981022B6
:0411FA0075B9F722AA
:10117B0075F1FC75F2F875A41075D40375D50F7560
:06118B00E10175E24022C3
:0411FE0075B287221D
:1011A4001211EA1211C71211F61211FA12117B026E
:0211B40011FE2A
:10000300EC4D6011E8497017ED33EC3304600DE4F7
:10001300FCFFFEFD22E933E8330470F80201B3125A
:10002300017E58046009E4CC24815006285009025B
:1000330001BD2840030201BAC0E0EB4A7044B98015
:1000430006D0E0FB0201A9EF4E701CBD8008EBFF58
:10005300EAFEE9FD80EBE98DF0A4FEE5F00200EC99
:10006300E9CDF9EAFEEBFFEF89F0A4FCE5F0CE89D8
:10007300F0A42EFFE435F0CD89F0A42DFEE435F095
:100083008067EF4E7005BD80D780C3EF8BF0A4ACC3
:10009300F0EE8BF0A42CFCE435F0F8EF8AF0A42CFE
:1000A300E5F038FCE433CB8DF0A42CFCE5F03BF811
:1000B300EE8AF0A42CFCE5F038F8E433CF89F0A401
:1000C3002CFCE5F038CF3400CE89F0A42FFFE5F007
:1000D3003EFEE433C98DF0A42EFEE5F039CD8AF05F
:1000E300A42FFFE5F03EFEE43DFD33D0E0FB5007D7
:1000F3000BBB000F0201BDEC2CFCEF33FFEE33FE14
:06010300ED33FD02019541
:1001090075F020800E75F010800575F0087D007E71
:10011900007F003392D530D50312058AEC334010A5
:10012900EF33FFEE33FEED33FDEC33FCD5F0ED227A
:0E013900E5F0247EA2D513CC92E7CDCEFF22B6
:10014700EDD2E7CD33EC3392D524814006E4FFFEB0
:10015700FDFC22FCE4CFCECDCC24E0501174FF800F
:10016700EDC3CC13CCCD13CDCE13CECF13CF0470AC
:07017700F030D5DE02058A1D
:10062500E5392425F8E605392278223007027825B0
:10063500E475F0011205BB0205132000EB7F2ED2F5
:10064500008018EF540F2490D43440D4FF30040BAD
:10065500EF24BFB41A0050032461FFE53A60021588
:100665003A053DE53D7002053C30070D7822E475FD
:10067500F0011205BBEF0205590211547403D207AC
:100685008003E4C207F5398B228A238924E4F53AED
:10069500F53CF53DE53A60077F2012066080F5756B
:1006A5003BFFC201C200C202C203C205C206C208A4
:1006B50012062EFF700D3007057F00120671AF3D43
:1006C500AE3C22B4255FC2D5C20412062EFF24D04B
:1006D500B40A00501A75F00A783A30D50508B6FF05
:1006E5000106C6A426F620D5047002D20380D924BB
:1006F500CFB41A00EF5004C2E5D20402095ED2015C
:1007050080C6D20080C0D20280BCD2D580BAD205C4
:1007150080B47F201206602002077401B53A0040BC
:10072500F1120625FF120660020699D208D206804C
:1007350095120625FB120625FA120625F94A4B7075
:100745000679557A0A7BFF20022EE53A602A7E005B
:100755008E8275830012052C60060EEE653B70F0E7
:10076500C2D5EBC0E0EAC0E0E9C0E0EE1209BED0B8
:10077500E0F9D0E0FAD0E0FB120513FF60AAEBC068
:10078500E0EAC0E0E9C0E0120660D0E02401F9D05B
:10079500E03400FAD0E0FBE53B0460DCD53BD980D2
:1007A50087D20280A21209A160F7E53B700104120D
:1007B50001C8A93B600DE53B600914F53B120A48E9
:1007C500EF60F3EA30E702F404C3995077EAF425C1
:1007D5003B0430E701E404F53B800D1209A160C13B
:1007E500EA053B253B1201C8EA7838F630E701E413
:1007F500253B04D53B04200501141209BEE4C0E0E5
:10080500120A487838E6601320E70714F6120648FE
:10081500802204F6D0E014C0E07F00120648E53BD4
:10082500600712063F153B800B30050312063FD0CB
:10083500E0020699D0E00480C51209A160A0E53B5D
:10084500041201C87838EAF6E53B20050260010488
:0508550024041209BE9D
:10085A0074FF04C0E0120A48120648E53B2005026C
:10086A00600312063FD0E0B53BE87F451206527896
:10087A0038E67F2B30E7047F2DF404C0E0120660CF
:10088A00D0E075F00A84C0F0120649D0E012064999
:10089A00020699791080027908C206C2088008D235
:1008AA00D5790A8004790AC2D5E53B047002F53B82
:1008BA00E4FAFDFEFF120625FC7B0820011312064E
:1008CA0025FD7B1030000A120625FE120625FF7B45
:1008DA0020EC3382D592D55013C3E43000069FFF33
:1008EA00E49EFEE42001039DFDE49CFCE4CBF8C2F7
:1008FA0001EC700CCFCECDCCE824F8F870F3801759
:10090A00C3EF33FFEE33FEED33FDEC33FCEB33FB89
:10091A00994002FB0FD8E9EB300105F8D0E0C44852
:10092A00B201C0E00AEC4D4E4F78207B0070C2EA5B
:10093A00B53B0040BCC0E01209C0D0F0D0E02001B5
:10094A0004C4C0E0C4B201C0F0120649D0F0D5F028
:10095A00EB0206991205DB073653089D5807074C28
:10096A0007034208A14F08A94408A949071C4308DC
:10097A00AF5507E046083E4507AA470A7550070BD8
:10098A002D070F2E07322B0713230730200A5E2A62
:10099A0006CB480000072AE53BB4FF03753B061265
:1009AA000625FC120625FD120625FE120625FF78ED
:1009BA00310201F7790AA2D5200314300509B910CA
:1009CA00020404B9080104A2D52006025001042039
:1009DA0002689202B53A005034C0E07F2030031911
:1009EA007F30A20272067205500F120A17C202C2A3
:1009FA0006C205C2087F30800F300503E9C0E01245
:100A0A000660300503D0E0F9D0E0B53ACC300517DE
:100A1A007F30B9100C1206607F583004077F788047
:100A2A0003B908031206603002057F2D0206607FB3
:100A3A00202008F87F2B2006F322920280CF7F0025
:100A4A00B4070050052431F8E6FF22286E756C6C55
:100A5A002900D2011206253001F8C201783A30D5B0
:100A6A000108F60206CB2D504349581206252403E5
:100A7A00B405004001E4900A7093120651743A12C8
:0A0A8A000651D203753A0402089DDC
:100A9400E53730030104F823282425F8227822308E
:100AA40003027825E475F0011205BB02051360EC1E
:100AB400C53B7002153A14C53B200304FF0211F133
:100AC400782274FFF5F00205CBFF021191E538603E
:100AD40006D538037F002220030F1211B6EF6008F9
:100AE400053BE53B7002053A2278221205B2120555
:100AF40013FF60E97822E475F0011205BB80DE1271
:100B04000ADBEFC0E0120ACDD0E040F380A0D203AC
:100B14008002C2038B228A238924E4F539F537F550
:100B24003AF53B753800C202C200C201C204120A7F
:100B3400A1FF7005AF397E0022B42530120AA1FF4F
:100B440024D0B40A00500C75F00AC538A42538F531
:100B54003880E924CFB41A00EF5002C2E5020DAF89
:100B6400D20180D8D20080D4D20480D0EF120ACD32
:100B74005008120B03EF600E80A9EFC0E0120ADBED
:100B8400D0E06F609EEF6074120AB280A7120ADB95
:100B9400EF6069E538700705388003120ADBEF60FF
:100BA4001420040E120A94E475F0011205BBEF122E
:100BB4000559D538E62004040537053980BA120AE8
:100BC400D1EFC0E0120ACDD0E05004120AB2E4FF23
:100BD40020040E120A94E475F0011205BBEF12050D
:100BE40059EF70DA20040405370539808BE5386045
:100BF400020538120B03120AD1EF70C6300304E465
:100C0400120AB2E5396003020B387EFF7FFF22E54A
:100C14003860020538120B03D206D205120AD1EF4E
:100C240030060260D7C0E0120AB2D0E0AC3CAD3D61
:100C3400AE3EAF3F120FB68C3C8D3D8E3E8F3F5083
:100C440007120ADBC20580D42004102005020539EE
:080C5400120A941205B20537E3
:100C5C00120598020B27D0E0809A7900800A79104F
:100C6C00800679088002790AD205E53860020538D9
:100C7C00E9C0E0120B03EF60DD120ADBBF2D04D2DA
:100C8C00028003BF2B09120B03EF60CA120AD1D0EA
:100C9C00E0B40A028033B40802802EBF3027700201
:100CAC007408C205C0E0120AD1D0E0BF78028003FC
:100CBC00BF58160538D538028007D53804D20580C0
:100CCC000B741080197002740ABF000AEFF8E4FC70
:100CDC00FDFEFF020D62C0E0EF120AB2D0E0F9E4B3
:100CEC00FCFDFEFFE9C0E0ECC0E0EDC0E0EEC0E0D2
:100CFC00EFC0E0120AD1EFF8D0E0FFD0E0FED0E078
:100D0C00FDD0E0FCD0F0E8604DB461004007B47B4E
:100D1C00005002C2E524D0503DFA24F6500724F9C5
:100D2C005034240AFAEAB5F000502BCFA9F0A42FC6
:100D3C00FF92D5E9C5F0CEA4A2D53EFE92D5E9C569
:100D4C00F0CDA4A2D53DFD92D5E9C5F0CCA4A2D599
:100D5C003CFCC205808EE8C0E020042A2005080572
:100D6C003930020312058A120A941205B205372093
:100D7C00000B20010DEE8FF012056B800912059807
:100D8C008004EF120559D0E0120AB2020B2720049E
:100D9C0010120A941205B20537E53A853BF012059C
:100DAC006B80E81205DB0BF1530C6A580B684C0B8B
:100DBC0064420B40480C6E4F0C72440B91430C6612
:100DCC00490C72550C13460C13450C13470B6C2A2B
:070DDC000D9A4E00000B70A0
:10017E00E9D2E7C933E833F892D5EDD2E7CD33ECC7
:07018E0033FC5002B2D52240
:10019500EC30E7100FBF000C0EBE00080DBD0004CB
:1001A5000BEB6014A2D5EB13FCED92E7FD2274FF77
:1001B500FCFDFEFF22E480F8A2D574FF13FC7D80D0
:0301C500E480EFE4
:1001C800F920E72824F950037907E4F42402FB18FE
:1001D800DBFDE624FB5014E9600DE4F618E604F6AE
:0F01E800B40A08E4F6D9F57401F60A22C2D5224A
:1001F700ED33EC3392D5FA602AB4FF33EDC2E77BD7
:10020700FF60067A02791CE4227A02792520D50458
:100217007A027920224E614E002B494E46002D4925
:100227004E4600E47A08F608DAFC7B00740722E8F9
:10023700C0E0ECC0E0EDC0E0EEC0E0EFC0E0EA7582
:10024700F010A4CAABF075F04DA42BFBE435F0FC1D
:10025700EA2410FAEB34C5FBEC34D9FCEDC2E7FF16
:1002670075F056A4F42411C5F0F434C58FF0A42A10
:10027700E5F03BE43CF620E7141204D3D0E0FFD0CE
:10028700E0FED0E0FDD0E0FC1203F58014F4041288
:1002970004D3D0E0FFD0E0FED0E0FDD0E0FC1200B8
:1002A70003D0E0F8E6FAEDD2E7CD33EC332482FB56
:1002B700E4C3CF33CFCE33CECD33CD33DBF37B07A0
:1002C70075F00A846004F6081B0AE5F0F6088FF05B
:1002D700740AA4FFACF08EF0740AA42CFEACF050A4
:1002E700010C8DF0740AA42CFDE435F0F608DBDE72
:0302F70074072267
:100FA300C207C208C209C20AF9E4F540F541FCFDD3
:100FB300FEFFE91006EA20090CB42D04D209D3225E
:100FC300B42B02D32224D0504794095041240A3031
:100FD3000A15F88541F0740AA42872E74051C5F058
:100FE300704D85F041D322D208C0E0E4FBFA7920AA
:100FF3007841120003ECF8EDF9EEFAEFFBD0E0FCD8
:10100300E41201131203013007B41540D322240A5A
:10101300200A20B4FE0720071AD207D32224EB604C
:101023000424E0700EA2099207D20AC209D322C394
:101033000201B3E4300A0BE541300902F404A207CC
:1010430092093008EA254020D2E5A2E7920A50022D
:10105300F404B4260050D8CCC0E0EDC0E0EEC0E00C
:10106300EFC0E0EC1204D3D0E0FFD0E0FED0E0FD0F
:10107300D0E0FC200A0512000380031203F53009B7
:0610830003120492C322D7
:1002FA000201B3E86480F8E933E83360110460F07E
:10030A00ED33EC337009E8FCE9FDEAFEEBFF220469
:10031A0060DED3EB9FEA9EE99DE8C2E78CF0C2F764
:10032A0095F0400CE8CCF8E9CDF9EACEFAEBCFFB30
:10033A0012017E85D0F05804700320D5B3E804700A
:10034A00075002B2D50201BD92D5EC0460F7E4CCA5
:10035A00C0E0C398F8603B94186008400DD0E0FBF9
:10036A00020195E4FBFAC9FC8028E830E406E4C9F6
:10037A00FBE4CAFCE830E305E4C9CACBFCE854074D
:10038A006010F8C3E913F9EA13FAEB13FBEC13FC58
:10039A00D8F130F52FC3E49CFCEF9BFFEE9AFEEDFB
:1003AA0099FDD0E0FBEF4E4D4C701222DB030201A7
:1003BA00BAEC2CFCEF33FFEE33FEED33FDED30E704
:1003CA00EB020195EF2BFFEE3AFEED39FDD0E0FB93
:1003DA0050130BBB00030201BDED13FDEE13FEEF3C
:0803EA0013FFEC13FC02019566
:1003F2000201BDEC5D046005E8590470030201B31B
:1004020012017E580460F6EC4860F2EC7004FDFEC6
:10041200FF22C860DB2481C85009C39860025006DD
:100422000201BA9850CAF582E9294B4A7005AB829B
:100432000201A975F0007C1A7880C3EF9BEE9AED59
:1004420099400DC3EF9BFFEE9AFEED99FDE842F055
:10045200DC23ACF0D0E0FFD0E0FED0E0FDAB8220A8
:10046200E7101BEB60BAEC2CFCEF33FFEE33FEED32
:1004720033FD020195E803F830E705C0F075F0009E
:10048200EF2FFFEE33FEED33FD40B830E7C280AA16
:10049200ED33EC33600A047003BD8004ECB2E7FC78
:0104A2002237
:1004A3003F8000004120000042C80000447A000061
:1004B300461C400047C35000497424004B189680E3
:1004C3004CBEBC205A0E1BCA6753C21C749DC5AEDA
:1004D300FB60065407601C2323120501EB543860AC
:1004E300091204ED1204FC120003ECF8EDF9EEFA24
:1004F300EFCB22EB1204FC80F1543803241C90044C
:10050300A3FE93FC0EEE93FD0EEE930ECE93FF220D
:030000000211D416
:0C11D400787FE4F6D8FD758141020DE340
:10051300BB010689828A83E0225002E722BBFE02E6
:09052300E32289828A83E4932219
:10052C00BB010CE58229F582E5833AF583E0225084
:10053C0006E92582F8E622BBFE06E92582F8E222CE
:0D054C00E58229F582E5833AF583E49322E8
:10055900BB010689828A83F0225002F722BBFE0181
:02056900F3227B
:10056B00BB010A89828A83F0E5F0A3F0225006F7DB
:0F057B0009A7F01922BBFE06F3E5F009F31922D8
:0E058A00C3E49FFFE49EFEE49DFDE49CFC2282
:10059800BB010789828A8302060D5005E9F8020625
:0A05A80001BBFE05E9F80206192266
:0905B200E6FB08E6FA08E6F9226E
:1005BB00FAE6FB0808E6F925F0F618E6CA3AF62241
:1005CB00FAE6FB0808E625F0F9F618E63AFAF62201
:1005DB00D083D082F8E4937012740193700DA3A3AF
:1005EB0093F8740193F5828883E4737402936860C3
:0605FB00EFA3A3A380DFC3
:10115400EFB40A07740D12115F740A309811A8993C
:10116400B8130CC2983098FDA899C298B811F630FB
:0711740099FDC299F59922D3
:1011B600100B0B1211E0BF0D027F0A021154AF1281
:0111C6002206
:0511F1008F12D20B2259
:10119100EFC394094005EF940E4003BF2003D380B1
:0311A10001C32265
:0C060100ECF608EDF608EEF608EFF62225
:0C060D00ECF0A3EDF0A3EEF0A3EFF02260
:0C061900ECF208EDF208EEF208EFF2221D
:0A11E0003098FDAF99C2987E0022FE
:00000001FF
