:1011AC0041442F444120707265766F646EED6B790B
:1011BC00207072ED6B6C61640A000A56796265727C
:1011CC0020707265766F646EED6B3A0A0031202DDB
:1011DC00204144202C2032202D204441000A5679F5
:1011EC006265722076737475703A0A312D50312E07
:1011FC00302C20322D202850312E312D50312E32D2
:10120C00292C2074202D7465706C6F74610A004E4B
:10121C00617061746965206E612050312E30206AD6
:10122C006520252E30336620560A00526F7A646989
:10123C00656C206E61706174ED2050312E3120612F
:10124C002050312E32206A6520252E3033662056F0
:10125C000A005465706C6F7461206A6520252E300D
:10126C00316620430A000A31202D205679626572BE
:10127C0020726F7A73616820444120707265766FBA
:10128C00646E696B612C2032202D204E6173746169
:10129C0076207072756420762075410A000A5679A2
:1012AC0062657220726F7A7361682044412070729B
:1012BC0065766F646E696B613A0A31202D2035308A
:1012CC003075412C2032202D20316D412C203320C3
:1012DC002D20326D410A000A5A6164616A20686FE0
:1012EC00646E6F747520762075410A002566004E79
:1012FC006173746176656E6120686F646E6F746182
:0E130C00206A652025302E31662075410A00CA
:100A9400121427D2997BFF7A1179AC020BED7BFFFC
:100AA4007A1179C61206877BFF7A1179D9120687E3
:100AB4001214688F0AE50A64316003020BF37BFFAA
:100AC4007A1179E91206871214688F0AE50A24CE8E
:100AD400605624BE7003020B76244370C175BA11AC
:100AE40075BB08C2EDD2EC30EDFDAFBEEFADBDF588
:100AF40008EDF509AC08EC1202A6E4FBFA7940789B
:100B0400401200FB7B007A8079FF78431202048F45
:100B14000F8E0E8D0D8C0C7BFF7A12791B8F288E15
:100B2400278D268C25020BED75BA0A75BB09C2ED1B
:100B3400D2EC30EDFDAFBEEFADBDF508EDF509AC7F
:100B440008EC1202A6E4FBFA794078401200FB7B21
:100B5400007A8079FF78431202048F0F8E0E8D0D78
:100B64008C0C7BFF7A1279378F288E278D268C2563
:100B7400807775BA1175BB09C2EDD2EC30EDFDAFCB
:100B8400BEEFADBDF508EDF509AC08EC1202A6E424
:100B9400FBFA794078401200FB7B007A8079FF7879
:100BA40043120204E4FBFA797A78441200FB8F0FB3
:100BB4008E0E8D0D8C0CE4FBFA79427844120006FB
:100BC4008F0F8E0E8D0D8C0C7B3D7A0A7937784011
:100BD4001202048F0F8E0E8D0D8C0C7BFF7A12790E
:100BE4005E8F288E278D268C25120687020AA2E5A1
:100BF4000A64326003020AA27BFF7A127972120637
:100C0400871214688F0AE50A24CE7003020D550476
:100C14006003020AA27BFF7A1279A91206871214D2
:100C2400688F0AE5B95403F50BAF97EF75F004A488
:100C3400FFE596C413135403FDE5F0F510EF4DF5ED
:100C440011E50BFB7A00700E750F90750E3E750D55
:100C5400FA750C3E802FEB64014A700E750F907587
:100C64000E3E750D7A750C3F801BAC10AD11E4126D
:100C740002A67B6C7A3E79FA783F1200FB8F0F8EC6
:100C84000E8D0D8C0CE50A6431703953B97F53B95C
:100C9400FC43B980AF0FAE0EAD0DAC0C7BAA7AF15C
:100CA400790278401200FB8F0F8E0E8D0D8C0C1282
:100CB40002DF8E108F11E5117806C333CE33CED800
:100CC400F9020D48E50A6432703B53B97F53B9FD0C
:100CD40043B90143B980AF0FAE0EAD0DAC0C7BAA86
:100CE4007AF17982783F1200FB8F0F8E0E8D0D8C76
:100CF4000C1202DF8E108F11E5117806C333CE3348
:100D0400CED8F9803FE50A64336003020AA253B9DE
:100D14007F53B9FD43B980AF0FAE0EAD0DAC0C7B64
:100D24006C7A3E79FA783F1200FB8F0F8E0E8D0D90
:100D34008C0C1202DF8E108F11E5117806C333CEAE
:100D440033CED8F9F5118E10F596E510F597020A11
:100D5400A27BFF7A1279E3120687752500752600B7
:100D640075270C7BFF7A1279F8120EDFE5B954036C
:100D7400F50A7015AF0FAE0EAD0DAC0C7BAA7AF16F
:100D8400790278401200FB8026E50A6401AF0FAEB9
:100D94000EAD0DAC0C700D7BAA7AF17982783F12FE
:100DA40000FB800B7B6C7A3E79FA783F1202048F49
:100DB4000F8E0E8D0D8C0CAF0FAE0EAD0DAC0C1254
:100DC40002DF8E108F11E5B95403F50B7014AC10CB
:100DD400AD111202A67BAA7AF179027840120204BC
:100DE400804CE50B6401AC10AD1170101202A67BAF
:100DF400AA7AF17982783F1202048032E41202A6C0
:100E04007B6C7A3E79FA783F120204C004C005C0B4
:100E140006C007AC10AD11E41202A6A804A905AAE5
:100E240006AB07D007D006D005D0041200FB8F28EC
:100E34008E278D268C257BFF7A1279FB120687AECE
:100E440010E5117806C333CE33CED8F9F5118E10E0
:090E5400F596E510F597020AA2DB
:07149C0053D9BFE4F5D9228A
:0D147900758840758920758E08758D962246
:0414AF0075981022FA
:0714A30075BC4875E88022CA
:0414B30075B9F222F3
:0414B70075D10722C2
:10143F0075F1FC75F2F875A41075D40375D50F7599
:06144F00E10175E24022FC
:0414BB0075B2832261
:1014270012149C1214791214AF1214A31214B312CB
:0814370014B712143F0214BBAC
:1000030002034BE86480F8E933E83360110460F0DD
:10001300ED33EC337009E8FCE9FDEAFEEBFF220463
:1000230060DED3EB9FEA9EE99DE8C2E78CF0C2F75E
:1000330095F0400CE8CCF8E9CDF9EACEFAEBCFFB2A
:1000430012031685D0F05804700320D5B3E804706A
:10005300075002B2D502035592D5EC0460F7E4CC05
:10006300C0E0C398F8603B94186008400DD0E0FBF3
:1000730002032DE4FBFAC9FC8028E830E406E4C956
:10008300FBE4CAFCE830E305E4C9CACBFCE8540747
:100093006010F8C3E913F9EA13FAEB13FBEC13FC52
:1000A300D8F130F52FC3E49CFCEF9BFFEE9AFEEDF5
:1000B30099FDD0E0FBEF4E4D4C701222DB0302039F
:1000C30052EC2CFCEF33FFEE33FEED33FDED30E766
:1000D300EB02032DEF2BFFEE3AFEED39FDD0E0FBF3
:1000E30050130BBB0003020355ED13FDEE13FEEF9C
:0800F30013FFEC13FC02032DC6
:1000FB00EC4D6011E8497017ED33EC3304600DE4FF
:10010B00FCFFFEFD22E933E8330470F802034B12C7
:10011B00031658046009E4CC2481500628500902C8
:10012B000355284003020352C0E0EB4A7044B980E8
:10013B0006D0E0FB020341EF4E701CBD8008EBFFC5
:10014B00EAFEE9FD80EBE98DF0A4FEE5F00201E4A7
:10015B00E9CDF9EAFEEBFFEF89F0A4FCE5F0CE89DF
:10016B00F0A42EFFE435F0CD89F0A42DFEE435F09C
:10017B008067EF4E7005BD80D780C3EF8BF0A4ACCA
:10018B00F0EE8BF0A42CFCE435F0F8EF8AF0A42C05
:10019B00E5F038FCE433CB8DF0A42CFCE5F03BF818
:1001AB00EE8AF0A42CFCE5F038F8E433CF89F0A408
:1001BB002CFCE5F038CF3400CE89F0A42FFFE5F00E
:1001CB003EFEE433C98DF0A42EFEE5F039CD8AF066
:1001DB00A42FFFE5F03EFEE43DFD33D0E0FB5007DE
:1001EB000BBB000F020355EC2CFCEF33FFEE33FE81
:0601FB00ED33FD02032DAF
:10020100020355EC5D046005E85904700302034BD9
:10021100120316580460F6EC4860F2EC7004FDFE1F
:10022100FF22C860DB2481C85009C39860025006D0
:100231000203529850CAF582E9294B4A7005AB82F4
:1002410002034175F0007C1A7880C3EF9BEE9AEDB2
:1002510099400DC3EF9BFFEE9AFEED99FDE842F048
:10026100DC23ACF0D0E0FFD0E0FED0E0FDAB82209B
:10027100E7101BEB60BAEC2CFCEF33FFEE33FEED25
:1002810033FD02032DE803F830E705C0F075F000F7
:10029100EF2FFFEE33FEED33FD40B830E7C280AA09
:1002A10075F020800E75F010800575F0087D007ED8
:1002B100007F003392D530D50312058AEC3340100C
:1002C100EF33FFEE33FEED33FDEC33FCD5F0ED22E1
:0E02D100E5F0247EA2D513CC92E7CDCEFF221D
:1002DF00EDD2E7CD33EC3392D524814006E4FFFE17
:1002EF00FDFC22FCE4CFCECDCC24E0501174FF8076
:1002FF00EDC3CC13CCCD13CDCE13CECF13CF047013
:07030F00F030D5DE02058A83
:10062500E5392425F8E605392278223007027825B0
:10063500E475F0011205BB0205132000EB7F2ED2F5
:10064500008018EF540F2490D43440D4FF30040BAD
:10065500EF24BFB41A0050032461FFE53A60021588
:100665003A053DE53D7002053C30070D7822E475FD
:10067500F0011205BBEF0205590214007403D207FD
:100685008003E4C207F5398B228A238924E4F53AED
:10069500F53CF53DE53A60077F2012066080F5756B
:1006A5003BFFC201C200C202C203C205C206C208A4
:1006B50012062EFF700D3007057F00120671AF3D43
:1006C500AE3C22B4255FC2D5C20412062EFF24D04B
:1006D500B40A00501A75F00A783A30D50508B6FF05
:1006E5000106C6A426F620D5047002D20380D924BB
:1006F500CFB41A00EF5004C2E5D20402095ED2015C
:1007050080C6D20080C0D20280BCD2D580BAD205C4
:1007150080B47F201206602002077401B53A0040BC
:10072500F1120625FF120660020699D208D206804C
:1007350095120625FB120625FA120625F94A4B7075
:100745000679557A0A7BFF20022EE53A602A7E005B
:100755008E8275830012052C60060EEE653B70F0E7
:10076500C2D5EBC0E0EAC0E0E9C0E0EE1209BED0B8
:10077500E0F9D0E0FAD0E0FB120513FF60AAEBC068
:10078500E0EAC0E0E9C0E0120660D0E02401F9D05B
:10079500E03400FAD0E0FBE53B0460DCD53BD980D2
:1007A50087D20280A21209A160F7E53B700104120D
:1007B5000360A93B600DE53B600914F53B120A484F
:1007C500EF60F3EA30E702F404C3995077EAF425C1
:1007D5003B0430E701E404F53B800D1209A160C13B
:1007E500EA053B253B120360EA7838F630E701E479
:1007F500253B04D53B04200501141209BEE4C0E0E5
:10080500120A487838E6601320E70714F6120648FE
:10081500802204F6D0E014C0E07F00120648E53BD4
:10082500600712063F153B800B30050312063FD0CB
:10083500E0020699D0E00480C51209A160A0E53B5D
:10084500041203607838EAF6E53B200502600104EE
:0508550024041209BE9D
:10085A0074FF04C0E0120A48120648E53B2005026C
:10086A00600312063FD0E0B53BE87F451206527896
:10087A0038E67F2B30E7047F2DF404C0E0120660CF
:10088A00D0E075F00A84C0F0120649D0E012064999
:10089A00020699791080027908C206C2088008D235
:1008AA00D5790A8004790AC2D5E53B047002F53B82
:1008BA00E4FAFDFEFF120625FC7B0820011312064E
:1008CA0025FD7B1030000A120625FE120625FF7B45
:1008DA0020EC3382D592D55013C3E43000069FFF33
:1008EA00E49EFEE42001039DFDE49CFCE4CBF8C2F7
:1008FA0001EC700CCFCECDCCE824F8F870F3801759
:10090A00C3EF33FFEE33FEED33FDEC33FCEB33FB89
:10091A00994002FB0FD8E9EB300105F8D0E0C44852
:10092A00B201C0E00AEC4D4E4F78207B0070C2EA5B
:10093A00B53B0040BCC0E01209C0D0F0D0E02001B5
:10094A0004C4C0E0C4B201C0F0120649D0F0D5F028
:10095A00EB0206991205DB073653089D5807074C28
:10096A0007034208A14F08A94408A949071C4308DC
:10097A00AF5507E046083E4507AA470A7550070BD8
:10098A002D070F2E07322B0713230730200A5E2A62
:10099A0006CB480000072AE53BB4FF03753B061265
:1009AA000625FC120625FD120625FE120625FF78ED
:1009BA003102038F790AA2D5200314300509B91030
:1009CA00020404B9080104A2D52006025001042039
:1009DA0002689202B53A005034C0E07F2030031911
:1009EA007F30A20272067205500F120A17C202C2A3
:1009FA0006C205C2087F30800F300503E9C0E01245
:100A0A000660300503D0E0F9D0E0B53ACC300517DE
:100A1A007F30B9100C1206607F583004077F788047
:100A2A0003B908031206603002057F2D0206607FB3
:100A3A00202008F87F2B2006F322920280CF7F0025
:100A4A00B4070050052431F8E6FF22286E756C6C55
:100A5A002900D2011206253001F8C201783A30D5B0
:100A6A000108F60206CB2D504349581206252403E5
:100A7A00B405004001E4900A7093120651743A12C8
:0A0A8A000651D203753A0402089DDC
:100E5D00E53730030104F823282425F822782230C1
:100E6D0003027825E475F0011205BB02051360EC51
:100E7D00C53B7002153A14C53B200304FF0214AAAA
:100E8D00782274FFF5F00205CBFF021455E53860AA
:100E9D0006D538037F002220030F121468EF600877
:100EAD00053BE53B7002053A2278221205B2120588
:100EBD0013FF60E97822E475F0011205BB80DE12A4
:100ECD000EA4EFC0E0120E96D0E040F380A0D20346
:100EDD008002C2038B228A238924E4F539F537F584
:100EED003AF53B753800C202C200C201C204120EAF
:100EFD006AFF7005AF397E0022B42530120E6AFFED
:100F0D0024D0B40A00500C75F00AC538A42538F564
:100F1D003880E924CFB41A00EF5002C2E5021178EF
:100F2D00D20180D8D20080D4D20480D0EF120E9698
:100F3D005008120ECCEF600E80A9EFC0E0120EA487
:100F4D00D0E06F609EEF6074120E7B80A7120EA42E
:100F5D00EF6069E538700705388003120EA4EF6065
:100F6D001420040E120E5DE475F0011205BBEF1294
:100F7D000559D538E62004040537053980BA120E17
:100F8D009AEFC0E0120E96D0E05004120E7BE4FFF3
:100F9D0020040E120E5DE475F0011205BBEF120573
:100FAD0059EF70DA20040405370539808BE5386078
:100FBD00020538120ECC120E9AEF70C6300304E4FF
:100FCD00120E7BE5396003020F017EFF7FFF22E5E4
:100FDD003860020538120ECCD206D205120E9AEFE9
:100FED0030060260D7C0E0120E7BD0E0AC3CAD3DC8
:100FFD00AE3EAF3F12132D8C3C8D3D8E3E8F3F503C
:10100D0007120EA4C20580D4200410200502053954
:08101D00120E5D1205B2053749
:10102500120598020EF0D0E0809A7900800A7910B6
:10103500800679088002790AD205E538600205380C
:10104500E9C0E0120ECCEF60DD120EA4BF2D04D274
:10105500028003BF2B09120ECCEF60CA120E9AD084
:10106500E0B40A028033B40802802EBF3027700234
:101075007408C205C0E0120E9AD0E0BF7802800362
:10108500BF58160538D538028007D53804D20580F3
:101095000B741080197002740ABF000AEFF8E4FCA3
:1010A500FDFEFF02112BC0E0EF120E7BD0E0F9E44C
:1010B500FCFDFEFFE9C0E0ECC0E0EDC0E0EEC0E005
:1010C500EFC0E0120E9AEFF8D0E0FFD0E0FED0E0DE
:1010D500FDD0E0FCD0F0E8604DB461004007B47B82
:1010E500005002C2E524D0503DFA24F6500724F9F9
:1010F5005034240AFAEAB5F000502BCFA9F0A42FFA
:10110500FF92D5E9C5F0CEA4A2D53EFE92D5E9C59C
:10111500F0CDA4A2D53DFD92D5E9C5F0CCA4A2D5CC
:101125003CFCC205808EE8C0E020042A20050805A5
:101135003930020312058A120E5D1205B2053720F9
:10114500000B20010DEE8FF012056B80091205983A
:101155008004EF120559D0E0120E7B020EF0200438
:1011650010120E5D1205B20537E53A853BF0120502
:101175006B80E81205DB0FBA531033580F314C0F53
:101185002D420F094810374F103B440F5A43102F7B
:1011950049103B550FDC460FDC450FDC470F352A60
:0711A50011634E00000F3939
:10031600E9D2E7C933E833F892D5EDD2E7CD33EC2D
:0703260033FC5002B2D522A6
:10032D00EC30E7100FBF000C0EBE00080DBD000431
:10033D000BEB6014A2D5EB13FCED92E7FD2274FFDD
:10034D00FCFDFEFF22E480F8A2D574FF13FC7D8036
:03035D00E480EF4A
:10036000F920E72824F950037907E4F42402FB1864
:10037000DBFDE624FB5014E9600DE4F618E604F614
:0F038000B40A08E4F6D9F57401F60A22C2D522B0
:10038F00ED33EC3392D5FA602AB4FF33EDC2E77B3D
:10039F00FF60067A0379B4E4227A0379BD20D5048D
:1003AF007A0379B8224E614E002B494E46002D49F3
:1003BF004E4600E47A08F608DAFC7B00740722E860
:1003CF00C0E0ECC0E0EDC0E0EEC0E0EFC0E0EA75E9
:1003DF00F010A4CAABF075F04DA42BFBE435F0FC84
:1003EF00EA2410FAEB34C5FBEC34D9FCEDC2E7FF7D
:1003FF0075F056A4F42411C5F0F434C58FF0A42A77
:10040F00E5F03BE43CF620E7141204D3D0E0FFD034
:10041F00E0FED0E0FDD0E0FC1202048014F40412E0
:10042F0004D3D0E0FFD0E0FED0E0FDD0E0FC12001E
:10043F00FBD0E0F8E6FAEDD2E7CD33EC332482FBC4
:10044F00E4C3CF33CFCE33CECD33CD33DBF37B0706
:10045F0075F00A846004F6081B0AE5F0F6088FF0C1
:10046F00740AA4FFACF08EF0740AA42CFEACF0500A
:10047F00010C8DF0740AA42CFDE435F0F608DBDED8
:03048F00740722CD
:10131A00C207C208C209C20AF9E4F540F541FCFD58
:10132A00FEFFE91006EA20090CB42D04D209D322E3
:10133A00B42B02D32224D0504794095041240A30B6
:10134A000A15F88541F0740AA42872E74051C5F0DD
:10135A00704D85F041D322D208C0E0E4FBFA79202F
:10136A0078411200FBECF8EDF9EEFAEFFBD0E0FC65
:10137A00E41202AB12000A3007B41540D322240A41
:10138A00200A20B4FE0720071AD207D32224EB60D2
:10139A000424E0700EA2099207D20AC209D322C31A
:1013AA0002034BE4300A0BE541300902F404A207B8
:1013BA0092093008EA254020D2E5A2E7920A5002B3
:1013CA00F404B4260050D8CCC0E0EDC0E0EEC0E092
:1013DA00EFC0E0EC1204D3D0E0FFD0E0FED0E0FD95
:1013EA00D0E0FC200A051200FB8003120204300937
:0613FA0003120492C3225D
:10049200ED33EC33600A047003BD8004ECB2E7FC78
:0104A2002237
:1004A3003F8000004120000042C80000447A000061
:1004B300461C400047C35000497424004B189680E3
:1004C3004CBEBC205A0E1BCA6753C21C749DC5AEDA
:1004D300FB60065407601C2323120501EB543860AC
:1004E300091204ED1204FC1200FBECF8EDF9EEFA2C
:1004F300EFCB22EB1204FC80F1543803241C90044C
:10050300A3FE93FC0EEE93FD0EEE930ECE93FF220D
:0300000002148661
:0C148600787FE4F6D8FD758141020A94DD
:10051300BB010689828A83E0225002E722BBFE02E6
:09052300E32289828A83E4932219
:10052C00BB010CE58229F582E5833AF583E0225084
:10053C0006E92582F8E622BBFE06E92582F8E222CE
:0D054C00E58229F582E5833AF583E49322E8
:10055900BB010689828A83F0225002F722BBFE0181
:02056900F3227B
:10056B00BB010A89828A83F0E5F0A3F0225006F7DB
:0F057B0009A7F01922BBFE06F3E5F009F31922D8
:0E058A00C3E49FFFE49EFEE49DFDE49CFC2282
:10059800BB010789828A8302060D5005E9F8020625
:0A05A80001BBFE05E9F80206192266
:0905B200E6FB08E6FA08E6F9226E
:1005BB00FAE6FB0808E6F925F0F618E6CA3AF62241
:1005CB00FAE6FB0808E625F0F9F618E63AFAF62201
:1005DB00D083D082F8E4937012740193700DA3A3AF
:1005EB0093F8740193F5828883E4737402936860C3
:0605FB00EFA3A3A380DFC3
:10140000EFB40A07740D12140B740A309811A899DE
:10141000B8130CC2983098FDA899C298B811F6304C
:0714200099FDC299F5992224
:10146800100B0B121492BF0D027F0A021400AF1268
:011478002251
:0514AA008F12D20B229D
:10145500EFC394094005EF940E4003BF2003D380EA
:0314650001C3229E
:0C060100ECF608EDF608EEF608EFF62225
:0C060D00ECF0A3EDF0A3EEF0A3EFF02260
:0C061900ECF208EDF208EEF208EFF2221D
:0A1492003098FDAF99C2987E002249
:00000001FF
