:101084005679626572206672656B76656E63697502
:1010940020414420707265766F646E696B612076BE
:1010A40020726F7A736168752025302E3266202D88
:1010B4002025302E3266204D487A2028486F646EF1
:1010C4006F74612076204D487A2900256600486FA8
:1010D400646E6F7461207A6164616E61206A652058
:1010E4006D696D6F20726F7A736168004672656B0B
:1010F40076656E6369612053415220726567697336
:101104007472612041444320707265766F646E6925
:101114006B61206E6173746176656E61206E61200F
:10112400686F646E6F74753A20256620487A0A00E9
:100E5C0012115BD299E5B2540314601414601E1481
:100E6C0060252403702CE4F512F5117510448008EC
:100E7C00E4F512F5117510C4750F408015E4F512E8
:100E8C00F5117510448008E4F512F5117510C47550
:100E9C000F41E4FBFAF97842AF12AE11AD10AC0F72
:100EAC001202048F288E278D268C2585122C8511F5
:100EBC002B85102A850F297BFF7A10798412070065
:100ECC0075250075260075270A7BFF7A1079CF12DD
:100EDC000B8FE4FBFAF97842AF12AE11AD10AC0FE8
:100EEC00120204AB0DAA0CA90BA80A1202A15022E3
:100EFC00AF12AE11AD10AC0FAB0DAA0CA90BA80A1A
:100F0C001202A1600D400B7BFF7A1079D212070000
:100F1C008080AB0DAA0CA90BA80AAF12AE11AD10B4
:100F2C00AC0F120204E4FBFA798078BF12000A12AB
:100F3C0003588E088F09E5097803C333CE33CED816
:100F4C00F9F5BC7F007E247D747C49AB12AA11A9F3
:100F5C0010A80F1200FBC004C005C006C007E509AD
:100F6C002401FDE43508FCE412031FA804A905AA1A
:100F7C0006AB07D007D006D005D0041202048F2888
:100F8C008E278D268C257BFF7A1079F012070002B4
:020F9C000E9EA7
:0711CE0053D9BFE4F5D9225B
:0D119400758840758920758E08758D96222E
:0411E10075981022CB
:0A11BA00E4F5BB75BA1175E8802258
:0D11A10075F1FE75D40175E10175E2402283
:0411E50075B283223A
:0711D50075A88075E60822F1
:10115B001211CE1211941211E11211BA1211A11225
:05116B0011E50211D5A1
:100003000203C4E86480F8E933E83360110460F064
:10001300ED33EC337009E8FCE9FDEAFEEBFF220463
:1000230060DED3EB9FEA9EE99DE8C2E78CF0C2F75E
:1000330095F0400CE8CCF8E9CDF9EACEFAEBCFFB2A
:1000430012038F85D0F05804700320D5B3E80470F1
:10005300075002B2D50203CE92D5EC0460F7E4CC8C
:10006300C0E0C398F8603B94186008400DD0E0FBF3
:100073000203A6E4FBFAC9FC8028E830E406E4C9DD
:10008300FBE4CAFCE830E305E4C9CACBFCE8540747
:100093006010F8C3E913F9EA13FAEB13FBEC13FC52
:1000A300D8F130F52FC3E49CFCEF9BFFEE9AFEEDF5
:1000B30099FDD0E0FBEF4E4D4C701222DB0302039F
:1000C300CBEC2CFCEF33FFEE33FEED33FDED30E7ED
:1000D300EB0203A6EF2BFFEE3AFEED39FDD0E0FB7A
:1000E30050130BBB00030203CEED13FDEE13FEEF23
:0800F30013FFEC13FC0203A64D
:1000FB00EC4D6011E8497017ED33EC3304600DE4FF
:10010B00FCFFFEFD22E933E8330470F80203C4124E
:10011B00038F58046009E4CC24815006285009024F
:10012B0003CE2840030203CBC0E0EB4A7044B980F6
:10013B0006D0E0FB0203BAEF4E701CBD8008EBFF4C
:10014B00EAFEE9FD80EBE98DF0A4FEE5F00201E4A7
:10015B00E9CDF9EAFEEBFFEF89F0A4FCE5F0CE89DF
:10016B00F0A42EFFE435F0CD89F0A42DFEE435F09C
:10017B008067EF4E7005BD80D780C3EF8BF0A4ACCA
:10018B00F0EE8BF0A42CFCE435F0F8EF8AF0A42C05
:10019B00E5F038FCE433CB8DF0A42CFCE5F03BF818
:1001AB00EE8AF0A42CFCE5F038F8E433CF89F0A408
:1001BB002CFCE5F038CF3400CE89F0A42FFFE5F00E
:1001CB003EFEE433C98DF0A42EFEE5F039CD8AF066
:1001DB00A42FFFE5F03EFEE43DFD33D0E0FB5007DE
:1001EB000BBB000F0203CEEC2CFCEF33FFEE33FE08
:0601FB00ED33FD0203A636
:100201000203CEEC5D046005E8590470030203C4E7
:1002110012038F580460F6EC4860F2EC7004FDFEA6
:10022100FF22C860DB2481C85009C39860025006D0
:100231000203CB9850CAF582E9294B4A7005AB827B
:100241000203BA75F0007C1A7880C3EF9BEE9AED39
:1002510099400DC3EF9BFFEE9AFEED99FDE842F048
:10026100DC23ACF0D0E0FFD0E0FED0E0FDAB82209B
:10027100E7101BEB60BAEC2CFCEF33FFEE33FEED25
:1002810033FD0203A6E803F830E705C0F075F0007E
:10029100EF2FFFEE33FEED33FD40B830E7C280AA09
:1002A10074F8CC6480CCC86480C8F58204604FC304
:1002B100EB9FF5F0EA9E42F0E99D42F0E89C45F0A3
:1002C100603C501DE5825FFFE582D313CB5BCBF42D
:1002D1002B5582FB50280ABA002409B90020088056
:1002E1001DE5825BFBE582D313CF5FCFF4C3132FF0
:1002F1005582FF50090EBE00050DBD00010CC3EB78
:100301009FF5F0EA9E42F0E99D42F0E89C45F060DD
:0903110007CC4820E701B3EC22FF
:10031A0075F020800E75F010800575F0087D007E5E
:10032A00007F003392D530D503120603EC33401018
:10033A00EF33FFEE33FEED33FDEC33FCD5F0ED2267
:0E034A00E5F0247EA2D513CC92E7CDCEFF22A3
:10035800EDD2E7CD33EC3392D524814006E4FFFE9D
:10036800FDFC22FCE4CFCECDCC24E0501174FF80FC
:10037800EDC3CC13CCCD13CDCE13CECF13CF047099
:07038800F030D5DE02060390
:10069E00E5392425F8E60539227822300702782537
:1006AE00E475F00112063402058C2000EB7F2ED289
:1006BE00008018EF540F2490D43440D4FF30040B34
:1006CE00EF24BFB41A0050032461FFE53A6002150F
:1006DE003A053DE53D7002053C30070D7822E47584
:1006EE00F001120634EF0205D20211347403D20760
:1006FE008003E4C207F5398B228A238924E4F53A74
:10070E00F53CF53DE53A60077F201206D980F57578
:10071E003BFFC201C200C202C203C205C206C2082A
:10072E001206A7FF700D3007057F001206EAAF3DD7
:10073E00AE3C22B4255FC2D5C2041206A7FF24D058
:10074E00B40A00501A75F00A783A30D50508B6FF8B
:10075E000106C6A426F620D5047002D20380D92441
:10076E00CFB41A00EF5004C2E5D2040209D7D20169
:10077E0080C6D20080C0D20280BCD2D580BAD2054B
:10078E0080B47F201206D92002077401B53A0040CA
:10079E00F112069EFF1206D9020712D208D2068067
:1007AE009512069EFB12069EFA12069EF94A4B7091
:1007BE000679CE7A0A7BFF20022EE53A602A7E0069
:1007CE008E827583001205A560060EEE653B70F0F5
:1007DE00C2D5EBC0E0EAC0E0E9C0E0EE120A37D0C5
:1007EE00E0F9D0E0FAD0E0FB12058CFF60AAEBC076
:1007FE00E0EAC0E0E9C0E01206D9D0E02401F9D069
:10080E00E03400FAD0E0FBE53B0460DCD53BD98058
:10081E0087D20280A2120A1A60F7E53B7001041219
:10082E0003D9A93B600DE53B600914F53B120AC1E3
:10083E00EF60F3EA30E702F404C3995077EAF42547
:10084E003B0430E701E404F53B800D120A1A60C147
:10085E00EA053B253B1203D9EA7838F630E701E486
:10086E00253B04D53B0420050114120A37E4C0E0F1
:10087E00120AC17838E6601320E70714F61206C193
:10088E00802204F6D0E014C0E07F001206C1E53BE2
:10089E0060071206B8153B800B3005031206B8D060
:1008AE00E0020712D0E00480C5120A1A60A0E53BF0
:1008BE00041203D97838EAF6E53B200502600104FC
:0508CE002404120A37AA
:1008D30074FF04C0E0120AC11206C1E53B20050201
:1008E30060031206B8D0E0B53BE87F451206CB782B
:1008F30038E67F2B30E7047F2DF404C0E01206D9DD
:10090300D0E075F00A84C0F01206C2D0E01206C22D
:10091300020712791080027908C206C2088008D241
:10092300D5790A8004790AC2D5E53B047002F53B08
:10093300E4FAFDFEFF12069EFC7B0820011312065B
:100943009EFD7B1030000A12069EFE12069EFF7B60
:1009530020EC3382D592D55013C3E43000069FFFB9
:10096300E49EFEE42001039DFDE49CFCE4CBF8C27D
:1009730001EC700CCFCECDCCE824F8F870F38017DF
:10098300C3EF33FFEE33FEED33FDEC33FCEB33FB10
:10099300994002FB0FD8E9EB300105F8D0E0C448D9
:1009A300B201C0E00AEC4D4E4F78207B0070C2EAE2
:1009B300B53B0040BCC0E0120A39D0F0D0E02001C2
:1009C30004C4C0E0C4B201C0F01206C2D0F0D5F036
:1009D300EB02071212065407AF5309165807804C4F
:1009E300077C42091A4F0922440922490795430902
:1009F300285508594608B7450823470AEE50078487
:100A03002D07882E07AB2B078C2307A9200AD72A8B
:100A1300074448000007A3E53BB4FF03753B0612F8
:100A2300069EFC12069EFD12069EFE12069EFF788F
:100A330031020408790AA2D5200314300509B9103C
:100A4300020404B9080104A2D520060250010420BF
:100A530002689202B53A005034C0E07F2030031997
:100A63007F30A20272067205500F120A90C202C2B0
:100A730006C205C2087F30800F300503E9C0E012CB
:100A830006D9300503D0E0F9D0E0B53ACC300517EC
:100A93007F30B9100C1206D97F583004077F788055
:100AA30003B908031206D93002057F2D0206D97F48
:100AB300202008F87F2B2006F322920280CF7F00AC
:100AC300B4070050052431F8E6FF22286E756C6CDC
:100AD3002900D20112069E3001F8C201783A30D5BE
:100AE3000108F60207442D5043495812069E240379
:100AF300B405004001E4900AE9931206CA743A125D
:0A0B030006CAD203753A040209166F
:100B0D00E53730030104F823282425F82278223014
:100B1D0003027825E475F00112063402058C60ECB1
:100B2D00C53B7002153A14C53B200304FF0211DCCE
:100B3D00782274FFF5F0020644FF021170E538606B
:100B4D0006D538037F002220030F121183EF6008B2
:100B5D00053BE53B7002053A22782212062B120561
:100B6D008CFF60E97822E475F00112063480DE1204
:100B7D000B54EFC0E0120B46D0E040F380A0D2033F
:100B8D008002C2038B228A238924E4F539F537F5D7
:100B9D003AF53B753800C202C200C201C204120B05
:100BAD001AFF7005AF397E0022B42530120B1AFFE3
:100BBD0024D0B40A00500C75F00AC538A42538F5B8
:100BCD003880E924CFB41A00EF5002C2E5020E2896
:100BDD00D20180D8D20080D4D20480D0EF120B463F
:100BED005008120B7CEF600E80A9EFC0E0120B5481
:100BFD00D0E06F609EEF6074120B2B80A7120B5428
:100C0D00EF6069E538700705388003120B54EF600B
:100C1D001420040E120B0DE475F001120634EF12C0
:100C2D0005D2D538E62004040537053980BA120BF4
:100C3D004AEFC0E0120B46D0E05004120B2BE4FF3C
:100C4D0020040E120B0DE475F001120634EF12059F
:100C5D00D2EF70DA20040405370539808BE5386052
:100C6D00020538120B7C120B4AEF70C6300304E4F8
:100C7D00120B2BE5396003020BB17EFF7FFF22E5DE
:100C8D003860020538120B7CD206D205120B4AEFE2
:100C9D0030060260D7C0E0120B2BD0E0AC3CAD3D6E
:100CAD00AE3EAF3F120FB18C3C8D3D8E3E8F3F500F
:100CBD0007120B54C20580D42004102005020539FB
:080CCD00120B0D12062B053776
:100CD500120611020BA0D0E0809A7900800A7910E3
:100CE500800679088002790AD205E5386002053860
:100CF500E9C0E0120B7CEF60DD120B54BF2D04D26E
:100D0500028003BF2B09120B7CEF60CA120B4AD07D
:100D1500E0B40A028033B40802802EBF3027700287
:100D25007408C205C0E0120B4AD0E0BF7802800308
:100D3500BF58160538D538028007D53804D2058046
:100D45000B741080197002740ABF000AEFF8E4FCF6
:100D5500FDFEFF020DDBC0E0EF120B2BD0E0F9E446
:100D6500FCFDFEFFE9C0E0ECC0E0EDC0E0EEC0E058
:100D7500EFC0E0120B4AEFF8D0E0FFD0E0FED0E084
:100D8500FDD0E0FCD0F0E8604DB461004007B47BD5
:100D9500005002C2E524D0503DFA24F6500724F94C
:100DA5005034240AFAEAB5F000502BCFA9F0A42F4D
:100DB500FF92D5E9C5F0CEA4A2D53EFE92D5E9C5F0
:100DC500F0CDA4A2D53DFD92D5E9C5F0CCA4A2D520
:100DD5003CFCC205808EE8C0E020042A20050805F9
:100DE50039300203120603120B0D12062B053720AC
:100DF500000B20010DEE8FF01205E480091206119B
:100E05008004EF1205D2D0E0120B2B020BA02004B8
:100E150010120B0D12062B0537E53A853BF012052E
:100E2500E480E81206540C6A530CE3580BE14C0BB2
:100E3500DD420BB9480CE74F0CEB440C0A430CDFC1
:100E4500490CEB550C8C460C8C450C8C470BE52A54
:070E55000E134E00000BE933
:10038F00E9D2E7C933E833F892D5EDD2E7CD33ECB4
:07039F0033FC5002B2D5222D
:1003A600EC30E7100FBF000C0EBE00080DBD0004B8
:1003B6000BEB6014A2D5EB13FCED92E7FD2274FF64
:1003C600FCFDFEFF22E480F8A2D574FF13FC7D80BD
:0303D600E480EFD1
:1003D900F920E72824F950037907E4F42402FB18EB
:1003E900DBFDE624FB5014E9600DE4F618E604F69B
:0F03F900B40A08E4F6D9F57401F60A22C2D52237
:10040800ED33EC3392D5FA602AB4FF33EDC2E77BC3
:10041800FF60067A04792DE4227A04793620D5041F
:100428007A047931224E614E002B494E46002D49FF
:100438004E4600E47A08F608DAFC7B00740722E8E6
:10044800C0E0ECC0E0EDC0E0EEC0E0EFC0E0EA756F
:10045800F010A4CAABF075F04DA42BFBE435F0FC0A
:10046800EA2410FAEB34C5FBEC34D9FCEDC2E7FF03
:1004780075F056A4F42411C5F0F434C58FF0A42AFD
:10048800E5F03BE43CF620E71412054CD0E0FFD041
:10049800E0FED0E0FDD0E0FC1202048014F4041267
:1004A800054CD0E0FFD0E0FED0E0FDD0E0FC12002B
:1004B800FBD0E0F8E6FAEDD2E7CD33EC332482FB4B
:1004C800E4C3CF33CFCE33CECD33CD33DBF37B078D
:1004D80075F00A846004F6081B0AE5F0F6088FF048
:1004E800740AA4FFACF08EF0740AA42CFEACF05091
:1004F800010C8DF0740AA42CFDE435F0F608DBDE5F
:0305080074072253
:100F9E00C207C208C209C20AF9E4F540F541FCFDD8
:100FAE00FEFFE91006EA20090CB42D04D209D32263
:100FBE00B42B02D32224D0504794095041240A3036
:100FCE000A15F88541F0740AA42872E74051C5F05D
:100FDE00704D85F041D322D208C0E0E4FBFA7920AF
:100FEE0078411200FBECF8EDF9EEFAEFFBD0E0FCE5
:100FFE00E412032412000A3007B41540D322240A47
:10100E00200A20B4FE0720071AD207D32224EB6051
:10101E000424E0700EA2099207D20AC209D322C399
:10102E000203C4E4300A0BE541300902F404A207BE
:10103E0092093008EA254020D2E5A2E7920A500232
:10104E00F404B4260050D8CCC0E0EDC0E0EEC0E011
:10105E00EFC0E0EC12054CD0E0FFD0E0FED0E0FD9A
:10106E00D0E0FC200A051200FB80031202043009B6
:06107E000312050BC32262
:10050B00ED33EC33600A047003BD8004ECB2E7FCFE
:01051B0022BD
:10051C003F8000004120000042C80000447A0000E7
:10052C00461C400047C35000497424004B18968069
:10053C004CBEBC205A0E1BCA6753C21C749DC5AE60
:10054C00FB60065407601C232312057AEB543860B9
:10055C00091205661205751200FBECF8EDF9EEFABE
:10056C00EFCB22EB12057580F1543803241C900557
:10057C001CFE93FC0EEE93FD0EEE930ECE93FF221B
:030000000211AE3C
:0C11AE00787FE4F6D8FD758141020E5CEC
:10058C00BB010689828A83E0225002E722BBFE026D
:09059C00E32289828A83E49322A0
:1005A500BB010CE58229F582E5833AF583E022500B
:1005B50006E92582F8E622BBFE06E92582F8E22255
:0D05C500E58229F582E5833AF583E493226F
:1005D200BB010689828A83F0225002F722BBFE0108
:0205E200F32202
:1005E400BB010A89828A83F0E5F0A3F0225006F762
:0F05F40009A7F01922BBFE06F3E5F009F319225F
:0E060300C3E49FFFE49EFEE49DFDE49CFC2208
:10061100BB010789828A830206865005E9F8020632
:0A0621007ABBFE05E9F802069222FA
:09062B00E6FB08E6FA08E6F922F4
:10063400FAE6FB0808E6F925F0F618E6CA3AF622C7
:10064400FAE6FB0808E625F0F9F618E63AFAF62287
:10065400D083D082F8E4937012740193700DA3A335
:1006640093F8740193F5828883E473740293686049
:06067400EFA3A3A380DF49
:10113400EFB40A07740D12113F740A309811A8997C
:10114400B8130CC2983098FDA899C298B811F6301B
:0711540099FDC299F59922F3
:10118300100B0B1211C4BF0D027F0A021134AF13EF
:011193002239
:0511DC008F13D20B226D
:10117000EFC394094005EF940E4003BF2003D380D2
:0311800001C32286
:0C067A00ECF608EDF608EEF608EFF622AC
:0C068600ECF0A3EDF0A3EEF0A3EFF022E7
:0C069200ECF208EDF208EEF208EFF222A4
:0A11C4003098FDAF99C2987E00221A
:00000001FF
