:10099F0048656C6C6F20576F726C640A005A616403
:1009AF00616A206D656E6F3A0A002573005A6164A3
:1009BF00616A20707269657A7669736B6F3A0A00A3
:1009CF005A6164616A2076656B3A0A002562750088
:0F09DF0020002C0025627520726F6B6F720A006A
:10087100120A4ED2997BFF7A09799F1200657BFF9C
:100881007A0979AC12006575250175260075270076
:100891007BFF7A0979B91203E17BFF7A0979BC12EE
:1008A10000657525017526007527147BFF7A097986
:1008B100B91203E17BFF7A0979CF12006575250032
:1008C10075260075270C7BFF7A0979DB1203E17825
:1008D100287C007D017B017A007900120742752591
:1008E100FF7526097527DF7B017A007928120947F0
:1008F1007525017526007527147B017A0079281268
:1009010009477525FF7526097527E17B017A00796D
:10091100281209477B017A007928120A158E118F56
:100921001274282FF974003EFA7B017525FF752694
:10093100097527E3850C2812005F7B017A0079286D
:0609410012006502087FB0
:070A8A0053D9BFE4F5D922A6
:0D0A5D00758840758920758E08758DE02222
:040A9600759810221D
:0A0A760075A41075E10175E240223D
:040A9A0075B282228D
:0F0A4E00120A8A120A5D120A96120A76020A9A90
:03000000020A6A87
:0C0A6A00787FE4F6D8FD75813B0208712E
:10000300E5312425F8E605312278223007027825E8
:10001300E475F00112080702075F2000EB7F2ED280
:10002300008018EF540F2490D43440D4FF30040BD5
:10003300EF24BFB41A0050032461FFE532600215B8
:10004300320535E5357002053430070D7822E47545
:10005300F001120807EF0207A50209EE7403D207A5
:100063008003E4C207F5318B228A238924E4F53225
:10007300F534F535E53260077F2012003E80F575D3
:1000830033FFC201C200C202C203C205C206C208D4
:1000930012000CFF700D3007057F0012004FAF35C3
:1000A300AE3422B4255FC2D5C20412000CFF24D0A3
:1000B300B40A00501A75F00A783230D50508B6FF35
:1000C3000106C6A426F620D5047002D20380D924E3
:1000D300CFB41A00EF5004C2E5D20402024FD2019A
:1000E30080C6D20080C0D20280BCD2D580BAD205ED
:1000F30080B47F2012003E2002077401B532004015
:10010300F1120003FF12003E020077D208D20680EC
:1001130095120003FB120003FA120003F94A4B7015
:100123000679207A037BFF20022EE532602A7E00C7
:100133008E8275830012077860060EEE653370F0C9
:10014300C2D5EBC0E0EAC0E0E9C0E0EE120296D00F
:10015300E0F9D0E0FAD0E0FB12075FFF60AAEBC042
:10016300E0EAC0E0E9C0E012003ED0E02401F9D0AB
:10017300E03400FAD0E0FBE5330460DCD533D9800A
:10018300877BFF7A027992D202809C791080027970
:1001930008C206C2088008D2D5790A8004790AC247
:1001A300D5E533047002F533E4FAFDFEFF120003D4
:1001B300FC7B08200113120003FD7B1030000A12A0
:1001C3000003FE120003FF7B20EC3382D592D5504F
:1001D30013C3E43000069FFFE49EFEE42001039D69
:1001E300FDE49CFCE4CBF8C201EC700CCFCECDCC8B
:1001F300E824F8F870F38017C3EF33FFEE33FEED16
:1002030033FDEC33FCEB33FB994002FB0FD8E9EBF6
:10021300300105F8D0E0C448B201C0E00AEC4D4E0D
:100223004F78207B0070C2EAB5330040BCC0E012B7
:100233000298D0F0D0E0200104C4C0E0C4B201C0F1
:10024300F0120027D0F0D5F0EB0200771208270157
:100253001453018E5800E54C00E14201924F019A7C
:0F02630044019A4900FA4301A0550184460184E1
:100272004501844703405000E92D00ED2E01102B6B
:1002820000F123010E2003292A00A94800000108D9
:100292003F3F3F00790AA2D5200314300509B91067
:1002A200020404B9080104A2D52006025001042068
:1002B20002689202B532005034C0E07F2030031948
:1002C2007F30A20272067205500F1202EFC202C202
:1002D20006C205C2087F30800F300503E9C0E01274
:1002E200003E300503D0E0F9D0E0B532CC3005173E
:1002F2007F30B9100C12003E7F583004077F78809F
:1003020003B9080312003E3002057F2D02003E7F32
:10031200202008F87F2B2006F322920280CF286E3D
:10032200756C6C2900D2011200033001F8C2017809
:100332003230D50108F60200A92D50434958120067
:10034200032403B405004001E490033B9312002F01
:0D035200743A12002FD20375320402018E9E
:10035F00E53730030104F823282425F822782230CA
:10036F0003027825E475F00112080702075F60ECBD
:10037F00C53B7002153A14C53B200304FF020A91D6
:10038F00782274FFF5F0020817FF020A2AE5386099
:10039F0006D538037F002220030F120A3DEF6008B5
:1003AF00053BE53B7002053A2278221207FE120741
:1003BF005FFF60E97822E475F00112080780DE1212
:1003CF0003A6EFC0E0120398D0E040F380A0D20361
:1003DF008002C2038B228A238924E4F539F537F58D
:1003EF003AF53B753800C202C200C201C2041203C3
:1003FF006CFF7005AF397E0022B4253012036CFFFD
:10040F0024D0B40A00500C75F00AC538A42538F56D
:10041F003880E924CFB41A00EF5002C2E502064239
:10042F00D20180D8D20080D4D20480D0EF120398AA
:10043F0050081203CEEF600E80A9EFC0E01203A6A2
:10044F00D0E06F609EEF607412037D80A71203A649
:10045F00EF6069E5387007053880031203A6EF6077
:10046F001420040E12035FE475F001120807EF1257
:10047F0007A5D538E62004040537053980BA1203DD
:10048F009CEFC0E0120398D0E0500412037DE4FF0C
:10049F0020040E12035FE475F001120807EF120734
:1004AF00A5EF70DA20040405370539808BE5386035
:1004BF000205381203CE12039CEF70C6300304E41A
:1004CF0012037DE53960030204037EFF7FFF2220C4
:1004DF00041174FFFCFDFEFF12035F1207FE1207EB
:1004EF00E405370203F2D0E080D27900800A791058
:1004FF00800679088002790AD205E538600205384E
:10050F00E9C0E01203CEEF60DD1203A6BF2D04D2C7
:10051F00028003BF2B091203CEEF60CA12039CD0D7
:10052F00E0B40A028033B40802802EBF3027700275
:10053F007408C205C0E012039CD0E0BF78028003AC
:10054F00BF58160538D538028007D53804D2058034
:10055F000B741080197002740ABF000AEFF8E4FCE4
:10056F00FDFEFF0205F5C0E0EF12037DD0E0F9E4D8
:10057F00FCFDFEFFE9C0E0ECC0E0EDC0E0EEC0E046
:10058F00EFC0E012039CEFF8D0E0FFD0E0FED0E028
:10059F00FDD0E0FCD0F0E8604DB461004007B47BC3
:1005AF00005002C2E524D0503DFA24F6500724F93A
:1005BF005034240AFAEAB5F000502BCFA9F0A42F3B
:1005CF00FF92D5E9C5F0CEA4A2D53EFE92D5E9C5DE
:1005DF00F0CDA4A2D53DFD92D5E9C5F0CCA4A2D50E
:0B05EF003CFCC205808EE8C0E0200448
:1005FA002A20050805393002031207D612035F12B2
:10060A0007FE053720000B20010DEE8FF01207B709
:10061A0080091207E48004EF1207A5D0E012037DD7
:10062A000203F220041012035F1207FE0537E53AAF
:10063A00853BF01207B780E812082704BC5304FD73
:10064A005804334C042F42040B4805014F05054456
:10065A00045C4304F94905055504DE4604DE4504F5
:0C066A00DE4704372A062D4E0000043B3A
:100947008B228A2389248B288A29892AAB2205248A
:10095700E524AA237002052314F912075F70ED74CA
:10096700FF2524F52474FF3523F523AB250527E55B
:1009770027AA267002052614F912075FFFAB220586
:1009870024E524AA237002052314F9EF1207A570A2
:08099700DAAB28AA29A92A22E3
:10067600E709F60870FA8046E709F20870FA803E44
:1006860088828C83E709F0A370FA807EE309F60876
:1006960070FA8076E309F20870FA806E88828C839D
:1006A600E309F0A370FA806289828A83E0A3F608E0
:1006B60070FA805689828A83E0A3F20870FA804A2B
:1006C60080D280FA80C680D4806580F28031801026
:1006D60080A680EA809A80A880DA80E280CA80318B
:1006E60089828A83ECFAE493A3C8C582C8CCC58301
:1006F600CCF0A3C8C582C8CCC583CC70E9800D896F
:10070600828A83E493A3F60870F9ECFAA9F0EDFB6C
:100716002289828A83ECFAE0A3C8C582C8CCC58345
:10072600CCF0A3C8C582C8CCC583CC70EA80DD896D
:10073600828A83E493A3F20870F980CE88F0ED24D0
:1007460002B4040050C4F582EB2402B4040050BA8B
:0907560023234582239006C6739B
:100A1500E4FFFE12075F600C0FEF70010E09E9702D
:050A2500F20A80EF223F
:10075F00BB010689828A83E0225002E722BBFE0298
:09076F00E32289828A83E49322CB
:10077800BB010CE58229F582E5833AF583E0225036
:1007880006E92582F8E622BBFE06E92582F8E22280
:0D079800E58229F582E5833AF583E493229A
:1007A500BB010689828A83F0225002F722BBFE0133
:0207B500F3222D
:1007B700BB010A89828A83F0E5F0A3F0225006F78D
:0F07C70009A7F01922BBFE06F3E5F009F319228A
:0E07D600C3E49FFFE49EFEE49DFDE49CFC2234
:1007E400BB010789828A830208595005E9F8020887
:0A07F4004DBBFE05E9F8020865227E
:0907FE00E6FB08E6FA08E6F92220
:10080700FAE6FB0808E6F925F0F618E6CA3AF622F2
:10081700FAE6FB0808E625F0F9F618E63AFAF622B2
:10082700D083D082F8E4937012740193700DA3A360
:1008370093F8740193F5828883E473740293686074
:06084700EFA3A3A380DF74
:1009EE00EFB40A07740D1209F9740A309811A89918
:1009FE00B8130CC2983098FDA899C298B811F63069
:070A0E0099FDC299F5992240
:100A3D0010090B120A80BF0D027F0A0209EEAF13D7
:010A4D002286
:050A91008F13D20922C1
:100A2A00EFC394094005EF940E4003BF2003D3801F
:030A3A0001C322D3
:0C084D00ECF608EDF608EEF608EFF622D7
:0C085900ECF0A3EDF0A3EEF0A3EFF02212
:0C086500ECF208EDF208EEF208EFF222CF
:0A0A80003098FDAF99C2987E002265
:00000001FF
