:100FE800556E6C6F636B696E672052544320696E4F
:100FF800746572666163652E2E2E2E0A0052544364
:1010080020696E7465726661636520756E6C6F63C6
:101018006B65642E2E2E0A00525443206D6F647542
:101028006C652064697361626C656420756E7469AF
:101038006C206E65787420726573746172742E2EDC
:101048002E202857726F6E67206B657920636F6456
:10105800657321290A000A5072657373203A20319A
:10106800202D3E204765742063757272656E74206A
:101078006461746520616E642074696D6520322036
:101088002D3E2053657420416C61726D0A000A0080
:1010980025303262752F25303262752F2530347530
:1010A8002025303262753A25303262753A25303261
:1010B8006275200A000A53657420616C61726D20A4
:1010C800666F722028666F726D61742064642F6D7C
:1010D8006D2F797979792068683A6D6D3A7373293B
:1010E800203A0025303262752F25303262752F255F
:1010F8003034752025303262753A25303262753ABF
:101108002530326275000A416C61726D2073657416
:1011180020666F72203A2025303262752F253032D2
:1011280062752F253034752025303262753A2530A6
:101138003262753A2530326275200A000A2D2D2D4B
:101148002D2D2D2D2D2D2D2D2D2D2D2D474F4F4452
:10115800204D4F524E494E472050454F504C452D3B
:101168002D2D2D2D2D2D2D2D2D2D2D2D2D2D2D0ACA
:011178000076
:0E131F000C541F1C1F1E1F1E1F1F1E1F1E1FF3
:100046001212FCD2997BFF7A0F79E812072DAFAE18
:10005600EF700675AEA575AEF1AFAEEF640270092E
:100066007BFF7A10790512072DAFAEEF6403700996
:100076007BFF7A10792002072D75AC1775AD40E528
:10008600AC5480648060F875AD20E5AC5480648023
:1000960060F875AC1675AD10E5AC5480648060F8F8
:1000A60075AC90E4F5ADE5AC5480648060F8E4F599
:1000B600ADE5AC5480648060F875ADD0E5AC548095
:1000C600648060F875AD9EE5AC5480648060F87518
:1000D600AD87E5AC5480648060F875AD63E5AC54DB
:1000E60080648060F875AC1675AD12E5AD54026497
:1000F600027008E5AC5480648060F07BFF7A10796A
:100106005E12072D12130E8F76E5766431600302B8
:1001160003D575AC96E5AC5480648060F8E5ADF522
:100126005154086408700875AC1675AD19800675CB
:10013600AC1675AD11E5AD540164017008E5AC541B
:1001460080648060F075ACD0E5AC5480648060F863
:1001560085AD65E5AC5480648060F885AD66E5AC38
:100166005480648060F885AD67E5AC548064806037
:10017600F885AD68E5AC5480648060F885AD69E5C6
:10018600AC5480648060F885AD6AE5AC54806480C8
:1001960060F8E4856A63F562F561F560AF63AE62A7
:1001A600AD61AC607808120EC38F638E628D618C70
:1001B60060E5634569F563E562F562E561F561E56C
:1001C60060F560AF63AE62AD61FC7808120EC38F56
:1001D600638E628D618C60E5634568F563E562F563
:1001E60062E561F561E560F560AF63AE62AD61FC45
:1001F6007808120EC38F638E628D618C60E563454D
:1002060067F563E562F562E561F561E560F560E570
:10021600632410F563E562340EF562E43561F56139
:10022600E43560F560E47B3CFAF9F8AF63AE62ADA5
:1002360061AC60120E1EAF038F6FAF63AE62AD612D
:10024600AC60E47B3CFAF9F8120E1E8F638E628D69
:10025600618C60E47B3CFAF9F8120E1EAF038F70D6
:10026600AF63AE62AD61AC60E47B3CFAF9F8120EA6
:100276001E8F638E628D618C60E47B18FAF9F8122A
:100286000E1EAF038F71AF63AE62AD61AC60E47BEF
:1002960018FAF9F8120E1E8F638E628D618C60E477
:1002A600F56BF56CF564F56DF56EF577F5787B6DA8
:1002B6007A01F9F8120E1EEF24B2F575EE3407F541
:1002C600747577077578B4C3E5789575E577957491
:1002D6005015056EE56E7002056D74042578F57887
:1002E600E43577F57780E0AE6DAF6EAB07AA06C34F
:1002F600E5639BFFE5629AFEE5619400FDE5609487
:1003060000FCE47B6D7A01F9F8120E1EEF24B2F5BB
:1003160075EE3407F574AE6DAF6EAB07AA06C3E58E
:10032600639BFFE5629AFEE5619400FDE56094003B
:10033600FCE47B6D7A01F9F8120E1EAE02EB240185
:10034600F553E43EF552E5755403700EAE74AF7581
:10035600FC7D64120D3EED4C700FAE74AF757C01E2
:100366007D90120D3EED4C700775551DD21380051C
:1003760075551CC213E4F564D3E564940B7480943C
:1003860080501DE553956CE552956B4013745425CA
:1003960064F8E6256CF56CE4356BF56B056480D87E
:1003A60074532564F8E6FFC3E56C9FF56CE56B9422
:1003B60000F56B856473C3E553956CF5727BFF7A24
:1003C60010799612072D7BFF7A1079980206B0E510
:1003D60076643260030201017BFF7A1079BD120751
:1003E6002D753A00753B00753C72753D00753E00F3
:1003F600753F73754000754100754274754300750D
:100406004400754571754600754700754870754915
:1004160000754A00754B6F7BFF7A1079EB120AA9BB
:10042600E4F579F57AF57BF57CF57985737A85744B
:100436007B85757CD3E57394027480948050137425
:100446000C257AF57AE43579F579E57C157C700228
:10045600157BAE7BAF7CE4FCFD7B6D7A01F9F8126F
:100466000D938F638E628D618C60AE7BAF7CE4FCF6
:10047600FD7B04FAF9F81212B8E5632FF563E5621D
:100486003EF562E5613DF561E5603CF560AE7BAF4A
:100496007CE4FCFD7B64FAF9F81212B8AA06A905F9
:1004A600A804C3E5639FF563E5629AF562E5619981
:1004B600F561E56098F560AE7BAF7CE4FCFD7B9072
:1004C6007A01F9F81212B8E5632FF563E5623EF595
:1004D60062E5613DF561E5603CF560AE79AF7AE4D1
:1004E600FCFD7B1EFAF9F8120D93E5632FF563E523
:1004F600623EF562E5613DF561E5603CF560E57AF1
:100506002401FFE43579FEE433FDE433FCE47B03A8
:10051600FAF9F8120D93E47B05FAF9F81212B8E528
:10052600632FF563E5623EF562E5613DF561E560E1
:100536003CF560E4FCFDFEE5632572F563EE35628D
:10054600F562ED3561F561EC3560F560C3E5639400
:10055600C9F563E56294FAF562E561940AF561E529
:10056600609400F560AF63AE62AD61FC7B807A514A
:1005760079017800120D938F638E628D618C60AF66
:1005860070E4FCFDFE7B3CFAF9F8120D93C004C042
:1005960005C006C007AF71E4FCFDFE7B107A0EF9BC
:1005A600F8120D93D003D002D001D000EF2BFBEE52
:1005B6003AFAED39F9EC38F8E4FCFDFEEB256FFF6D
:1005C600EE3AFEED39FDEC38FCE5632FF563E562A6
:1005D6003EF562E5613DF561E5603CF560C3E563C6
:1005E6009410F563E562940EF562E5619400F56199
:1005F600E5609400F560E563FFE48F67AE62AD6188
:10060600AC607808120EB08F638E628D618C60E4E8
:100616008F687808120EB08F638E628D618C60E4ED
:100626008F697808120EB08F638E628D618C608F31
:100636006A75AC1653ADF7E5AC5480648060F87506
:10064600AC18E4F5AD43AC80E5AC5480648060F84A
:10065600E4F5AD43AC80E5AC5480648060F8856712
:10066600AD43AC80E5AC5480648060F88568AD43EA
:10067600AC80E5AC5480648060F88569AD43AC809D
:10068600E5AC5480648060F8856AAD43AC80E5AC27
:100696005480648060F875AC1643AD08E5AC5480B0
:1006A600648060F87BFF7A11790E85723A85733B18
:1006B60085743C85753D85713E85703F856F40121A
:0506C600072D020101F7
:030043000211792E
:10117900C0E0C0F0C083C082C0D075D000C000C03C
:1011890001C002C003C004C005C006C00775AC1683
:1011990053ADFBE5AC5480648060F853ADF7E5AC22
:1011A9005480648060F875AC1875AD0043AC80E577
:1011B900AC5480648060F875AD0043AC80E5AC54F4
:1011C90080648060F875AD0043AC80E5AC54806400
:1011D9008060F875AD0043AC80E5AC5480648060F4
:1011E900F875AD0043AC80E5AC5480648060F87557
:1011F900AD0043AC80E5AC5480648060F8D2127BCA
:10120900FF7A11794412072DD007D006D005D004F2
:10121900D003D002D001D000D0D0D082D083D0F07A
:03122900D0E032E0
:0713450053D9BFE4F5D922E2
:0D132E00758840758920758E08758D962292
:04135A007598102250
:07134C0075E10175E240228A
:04135E0075B28722BB
:0713530075E60275A8802277
:1012FC0012134512132E12135A12134C12135E02B0
:02130C00135379
:0300000002122CBD
:0C122C00787FE4F6D8FD75817C02127317
:100D3E00BC000BBE0029EF8DF084FFADF022E4CC99
:100D4E00F875F008EF2FFFEE33FEEC33FCEE9DEC62
:100D5E00984005FCEE9DFE0FD5F0E9E4CEFD22EDA8
:100D6E00F8F5F0EE8420D21CFEADF075F008EF2FF2
:100D7E00FFED33FD4007985006D5F0F222C398FDE3
:050D8E000FD5F0EA2280
:100D9300E88FF0A4CC8BF0A42CFCE98EF0A42CFCFF
:100DA3008AF0EDA42CFCEA8EF0A4CDA8F08BF0A47D
:100DB3002DCC3825F0FDE98FF0A42CCD35F0FCEBDC
:100DC3008EF0A4FEA9F0EB8FF0A4CFC5F02ECD39A1
:0F0DD300FEE43CFCEAA42DCE35F0FDE43CFC220E
:100DE20075F008758200EF2FFFEE33FECD33CDCCC8
:100DF20033CCC58233C5829BED9AEC99E58298404B
:100E02000CF582EE9BFEED9AFDEC99FC0FD5F0D627
:100E1200E4CEFBE4CDFAE4CCF9A88222B800C1B951
:100E22000059BA002DEC8BF084CFCECDFCE5F0CB8F
:100E3200F97818EF2FFFEE33FEED33FDEC33FCEBC8
:100E420033FB10D703994004EB99FB0FD8E5E4F983
:100E5200FA227818EF2FFFEE33FEED33FDEC33FC70
:100E6200C933C910D7059BE99A4007EC9BFCE99A64
:100E7200F90FD8E0E4C9FAE4CCFB2275F010EF2FA9
:100E8200FFEE33FEED33FDCC33CCC833C810D707A9
:100E92009BEC9AE899400AED9BFDEC9AFCE899F8E4
:0E0EA2000FD5F0DAE4CDFBE4CCFAE4C8F92277
:1012B800C2D5E830E70FB2D5E4C39BFBE49AFAE461
:1012C80099F9E498F8EC30E717B2D51212EE120E3D
:1012D8001EE4C39BFBE49AFAE499F9E498F88003C6
:1012E800120E1E30D50DE4C39FFFE49EFEE49DFD63
:0412F800E49CFC2254
:100EB000E8600FECC313FCED13FDEE13FEEF13FF20
:030EC000D8F12244
:100EC300E8600FEFC333FFEE33FEED33FDEC33FC8D
:030ED300D8F12231
:1006CB00E546243AF8E60546227837301002783AA8
:1006DB00E475F001120F7E020ED62009EB7F2ED2AD
:1006EB00098018EF540F2490D43440D4FF300D0BF5
:1006FB00EF24BFB41A0050032461FFE547600215D5
:10070B0047054AE54A7002054930100D7837E47504
:10071B00F001120F7EEF020F1C0200037403D210C4
:10072B008003E4C210F5468B378A388939E4F547E4
:10073B00F549F54AE54760077F2012070680F575F6
:10074B0048FFC20AC209C20BC20CC20EC20FC211B1
:10075B001206D4FF700D3010057F00120717AF4A39
:10076B00AE4922B4255FC2D5C20D1206D4FF24D0E8
:10077B00B40A00501A75F00A784730D50508B6FF51
:10078B000106C6A426F620D5047002D20C80D9240B
:10079B00CFB41A00EF5004C2E5D20D020917D20AEA
:1007AB0080C6D20980C0D20B80BCD2D580BAD20E03
:1007BB0080B47F20120706200B077401B547004059
:1007CB00F11206CBFF12070602073FD211D20F80A0
:1007DB00951206CBFB1206CBFA1206CBF94A4B70DD
:1007EB000679E87A097BFF200B2EE547602A7E000D
:1007FB008E82758300120EEF60060EEE654870F068
:10080B00C2D5EBC0E0EAC0E0E9C0E0EE12095ED071
:10081B00E0F9D0E0FAD0E0FB120ED6FF60AAEBC0F5
:10082B00E0EAC0E0E9C0E0120706D0E02401F9D00D
:10083B00E03400FAD0E0FBE5480460DCD548D98011
:10084B00877BFF7A09795AD20B809C7910800279C9
:10085B0008C20FC2118008D2D5790A8004790AC266
:10086B00D5E548047002F548E4FAFDFEFF1206CB0D
:10087B00FC7B08200A131206CBFD7B1030090A12F1
:10088B0006CBFE1206CBFF7B20EC3382D592D550E4
:10089B0013C3E43009069FFFE49EFEE4200A039D88
:1008AB00FDE49CFCE4CBF8C20AEC700CCFCECDCCB3
:1008BB00E824F8F870F38017C3EF33FFEE33FEED47
:1008CB0033FDEC33FCEB33FB994002FB0FD8E9EB28
:1008DB00300A05F8D0E0C448B20AC0E00AEC4D4E2D
:1008EB004F78207B0070C2EAB5480040BCC0E012D4
:1008FB000960D0F0D0E0200A04C4C0E0C4B20AC042
:10090B00F01206EFD0F0D5F0EB02073F120F9E0767
:10091B00DC5308565807AD4C07A942085A4F0862DA
:0F092B004408624907C243086855084C46084C07
:10093A0045084C470A085007B12D07B52E07D82B92
:10094A0007B92307D62009F12A077148000007D002
:10095A003F3F3F00790AA2D5200C14300E09B91086
:10096A00020404B9080104A2D5200F025001042090
:10097A000B68920BB547005034C0E07F20300C1949
:10098A007F30A20B720F720E500F1209B7C20BC240
:10099A000FC20EC2117F30800F300E03E9C0E01281
:1009AA000706300E03D0E0F9D0E0B547CC300E1779
:1009BA007F30B9100C1207067F58300D077F7880F8
:1009CA0003B90803120706300B057F2D0207067FBD
:1009DA00202011F87F2B200FF322920B80CF286E54
:1009EA00756C6C2900D20A1206CB300AF8C20A7852
:1009FA004730D50108F60207712D504349581206AF
:100A0A00CB2403B405004001E4900A03931206F7CD
:0D0A1A00743A1206F7D20C75470402085614
:10130E0010140B12133BBF0D027F0A020003AF082D
:01131E0022AC
:100A2700E54C300C0104F82328243AF822783730B3
:100A37000C02783AE475F001120F7E020ED660ECD4
:100A4700C5507002154F14C550200C04FF02003D1D
:100A5700783774FFF5F0020F8EFF02002AE54D602C
:100A670006D54D037F0022200C0F12130EEF6008EE
:100A77000550E5507002054F227837120F75120E98
:100A8700D6FF60E97837E475F001120F7E80DE1239
:100A97000A6EEFC0E0120A60D0E040F380A0D20CEB
:100AA7008002C20C8B378A388939E4F54EF54CF54C
:100AB7004FF550754D00C20BC209C20AC20D120A8A
:100AC70034FF7005AF4E7E0022B42530120A34FF82
:100AD70024D0B40A00500C75F00AC54DA4254DF575
:100AE7004D80E924CFB41A00EF5002C2E5020D0A87
:100AF700D20A80D8D20980D4D20D80D0EF120A60F2
:100B07005008120A96EF600E80A9EFC0E0120A6E35
:100B1700D0E06F609EEF6074120A4580A7120A6EDC
:100B2700EF6069E54D7007054D8003120A6EEF60AF
:100B370014200D0E120A27E475F001120F7EEF1232
:100B47000F1CD54DE6200D04054C054E80BA120A40
:100B570064EFC0E0120A60D0E05004120A45E4FFD7
:100B6700200D0E120A27E475F001120F7EEF120F07
:100B77001CEF70DA200D04054C054E808BE54D60A7
:100B870002054D120A96120A64EF70C6300C04E48F
:100B9700120A45E54E6003020ACB7EFF7FFF222043
:100BA7000D1174FFFCFDFEFF120A27120F75120FBD
:100BB7005B054C020ABAD0E080D27900800A79102E
:100BC700800679088002790AD20EE54D6002054D4C
:100BD700E9C0E0120A96EF60DD120A6EBF2D04D25B
:100BE7000B8003BF2B09120A96EF60CA120A64D062
:100BF700E0B40A028033B40802802EBF30277002A7
:100C07007408C20EC0E0120A64D0E0BF7802800305
:100C1700BF5816054DD54D028007D54D04D20E801D
:100C27000B741080197002740ABF000AEFF8E4FC15
:100C3700FDFEFF020CBDC0E0EF120A45D0E0F9E46B
:100C4700FCFDFEFFE9C0E0ECC0E0EDC0E0EEC0E077
:100C5700EFC0E0120A64EFF8D0E0FFD0E0FED0E08A
:100C6700FDD0E0FCD0F0E8604DB461004007B47BF4
:100C7700005002C2E524D0503DFA24F6500724F96B
:100C87005034240AFAEAB5F000502BCFA9F0A42F6C
:100C9700FF92D5E9C5F0CEA4A2D53EFE92D5E9C50F
:100CA700F0CDA4A2D53DFD92D5E9C5F0CCA4A2D53F
:0B0CB7003CFCC20E808EE8C0E0200D67
:100CC2002A200E08054E300B03120F4D120A27126E
:100CD2000F75054C20090B200A0DEE8FF0120F2E16
:100CE2008009120F5B8004EF120F1CD0E0120A453C
:100CF200020ABA200D10120A27120F75054CE54F91
:100D02008550F0120F2E80E8120F9E0B84530BC5F4
:100D1200580AFB4C0AF7420AD3480BC94F0BCD4481
:100D22000B24430BC1490BCD550BA6460BA6450B15
:0C0D3200A6470AFF2A0CF54E00000B0338
:10123800020046E493A3F8E493A34003F68001F286
:1012480008DFF48029E493A3F85407240CC8C333B7
:10125800C4540F4420C8834004F456800146F6DF86
:10126800E4800B010204081020408090131FE47EE4
:10127800019360BCA3FF543F30E509541FFEE4937B
:10128800A360010ECF54C025E060A840B8E493A342
:10129800FAE493A3F8E493A3C8C582C8CAC583CA6D
:1012A800F0A3C8C582C8CAC583CADFE9DEE780BE25
:01132D0000BF
:100ED600BB010689828A83E0225002E722BBFE021A
:090EE600E32289828A83E493224D
:100EEF00BB010CE58229F582E5833AF583E02250B8
:100EFF0006E92582F8E622BBFE06E92582F8E22202
:0D0F0F00E58229F582E5833AF583E493221B
:100F1C00BB010689828A83F0225002F722BBFE01B4
:020F2C00F322AE
:100F2E00BB010A89828A83F0E5F0A3F0225006F70E
:0F0F3E0009A7F01922BBFE06F3E5F009F319220B
:0E0F4D00C3E49FFFE49EFEE49DFDE49CFC22B5
:100F5B00BB010789828A83020FD05005E9F8020F83
:0A0F6B00C4BBFE05E9F8020FDC220A
:090F7500E6FB08E6FA08E6F922A1
:100F7E00FAE6FB0808E6F925F0F618E6CA3AF62274
:100F8E00FAE6FB0808E625F0F9F618E63AFAF62234
:100F9E00D083D082F8E4937012740193700DA3A3E2
:100FAE0093F8740193F5828883E4737402936860F6
:060FBE00EFA3A3A380DFF6
:10000300EFB40A07740D12000E740A309811A89900
:10001300B8130CC2983098FDA899C298B811F6305D
:0700230099FDC299F5992235
:0A133B003098FDAF99C2987E0022A1
:05003D008F08D214221F
:10002A00EFC394094005EF940E4003BF2003D38029
:03003A0001C322DD
:0C0FC400ECF608EDF608EEF608EFF62259
:0C0FD000ECF0A3EDF0A3EEF0A3EFF02294
:0C0FDC00ECF208EDF208EEF208EFF22251
:00000001FF
