:0C05BA0041686F6A2073766574210A00A6
:1003D20012005FE4F524F525D3E5279463E526644E
:1003E2008094804037750BFF750C05750DBA7B0143
:1003F2007A0079C81200D28E228F23E4F528F529DB
:100402000529E529AE28700205281424C8F582744E
:10041200003EF583E0F599E4F526F5273009B98524
:100422002422852523E4F52AF52BC3E52B9525E522
:10043200246480F8E52A6480985036052BE52BAEBB
:100442002A7002052A142400F58274003EF583E026
:10045200FF052BE52BAC2A7002052A1424C8F5826D
:1004620074003CF583EFF0052BE52B70BD052A8067
:10047200B9E4F52CF52D052DE52DAE2C7002052CD9
:100482001424C8F58274003EF583E0F59985242290
:08049200852523C2090203DAEB
:03002300020528AB
:10052800C0E0C083C082C0D075D000C000C0063013
:100538009839C3E52594C8E52464809480502A74CA
:10054800002525F58274003524F583E599F07400BB
:100558002525F58274003524F583E0640D7002D2F8
:10056800090525E52570020524C29830992AC3E5B6
:10057800299523E5226480F8E528648098501705BA
:1005880029E529AE28700205281424C8F5827400CC
:100598003EF583E0F599C299D006D000D0D0D0823C
:0505A800D083D0E03219
:0300730002004D3B
:10004D00C0E0B2800527E5277002052653917FD0C9
:02005D00E0328F
:0700190053D9BFE4F5D92221
:10000300758840758920758E08758D967591047570
:06001300923E7593B0223D
:0405D90075981022DF
:0D05AD0075A40175D40175E10175E24022CD
:0405DD0075B283224E
:0705D20075A89075E6802278
:10005F001200191200031205D91205AD1205DD02A7
:02006F0005D2B8
:030000000205C630
:0C05C600787FE4F6D8FD75812D0203D289
:10007600E517240BF8E60517227808300702780BF7
:10008600E475F0011204F202049A2000EB7F2ED2EE
:10009600008018EF540F2490D43440D4FF30040B62
:1000A600EF24BFB41A0050032461FFE5186002155F
:1000B60018051BE51B7002051A30070D7808E47554
:1000C600F0011204F2EF0204E00200267403D207E4
:1000D6008003E4C207F5178B088A09890AE4F51834
:1000E600F51AF51BE51860077F201200B180F5753B
:1000F60019FFC201C200C202C203C205C206C2087B
:1001060012007FFF700D3007057F001200C2AF1B83
:10011600AE1A22B4255FC2D5C20412007FFF24D0D6
:10012600B40A00501A75F00A781830D50508B6FFDB
:100136000106C6A426F620D5047002D20380D9246F
:10014600CFB41A00EF5004C2E5D2040202C2D201B3
:1001560080C6D20080C0D20280BCD2D580BAD20579
:1001660080B47F201200B12002077401B518004048
:10017600F1120076FF1200B10200EAD208D2068020
:1001860095120076FB120076FA120076F94A4B7049
:100196000679937A037BFF20022EE518602A7E00FB
:1001A6008E827583001204B360060EEE651970F038
:1001B600C2D5EBC0E0EAC0E0E9C0E0EE120309D028
:1001C600E0F9D0E0FAD0E0FB12049AFF60AAEBC097
:1001D600E0EAC0E0E9C0E01200B1D0E02401F9D0C5
:1001E600E03400FAD0E0FBE5190460DCD519D980CB
:1001F600877BFF7A037905D202809C791080027989
:1002060008C206C2088008D2D5790A8004790AC2D3
:10021600D5E519047002F519E4FAFDFEFF12007621
:10022600FC7B08200113120076FD7B1030000A12B9
:100236000076FE120076FF7B20EC3382D592D550F5
:1002460013C3E43000069FFFE49EFEE42001039DF5
:10025600FDE49CFCE4CBF8C201EC700CCFCECDCC17
:10026600E824F8F870F38017C3EF33FFEE33FEEDA2
:1002760033FDEC33FCEB33FB994002FB0FD8E9EB83
:10028600300105F8D0E0C448B201C0E00AEC4D4E9A
:100296004F78207B0070C2EAB5190040BCC0E0125E
:1002A600030BD0F0D0E0200104C4C0E0C4B201C00A
:1002B600F012009AD0F0D5F0EB0200EA1205020126
:1002C600875302015801584C01544202054F020D52
:0F02D60044020D49016D4302135501F74601F72C
:1002E5004501F74703B350015C2D01602E01832BB7
:1002F500016423018120039C2A011C480000017B25
:100305003F3F3F00790AA2D5200314300509B910F3
:10031500020404B9080104A2D520060250010420F4
:1003250002689202B518005034C0E07F20300319EE
:100335007F30A20272067205500F120362C202C21A
:1003450006C205C2087F30800F300503E9C0E01200
:1003550000B1300503D0E0F9D0E0B518CC30051771
:100365007F30B9100C1200B17F583004077F7880B8
:1003750003B908031200B13002057F2D0200B17FD9
:10038500202008F87F2B2006F322920280CF286ECA
:10039500756C6C2900D2011200763001F8C2017823
:1003A5001830D50108F602011C2D5043495812009A
:1003B500762403B405004001E49003AE931200A235
:0D03C500743A1200A2D2037518040202015E
:10049A00BB010689828A83E0225002E722BBFE0260
:0904AA00E32289828A83E4932293
:1004B300BB010CE58229F582E5833AF583E02250FE
:1004C30006E92582F8E622BBFE06E92582F8E22248
:0D04D300E58229F582E5833AF583E4932262
:1004E000BB010689828A83F0225002F722BBFE01FB
:0204F000F322F5
:1004F200FAE6FB0808E6F925F0F618E6CA3AF6220B
:10050200D083D082F8E4937012740193700DA3A388
:1005120093F8740193F5828883E47374029368609C
:06052200EFA3A3A380DF9C
:10002600EFB40A07740D120031740A309811A899BA
:10003600B8130CC2983098FDA899C298B811F6303A
:0700460099FDC299F5992212
:00000001FF
